{
  "contractName": "HelloWorld",
  "abi": [
    {
      "constant": true,
      "inputs": [],
      "name": "staticText",
      "outputs": [
        {
          "name": "",
          "type": "string"
        }
      ],
      "payable": false,
      "stateMutability": "view",
      "type": "function"
    },
    {
      "constant": true,
      "inputs": [
        {
          "name": "",
          "type": "uint256"
        }
      ],
      "name": "textArray",
      "outputs": [
        {
          "name": "",
          "type": "string"
        }
      ],
      "payable": false,
      "stateMutability": "view",
      "type": "function"
    },
    {
      "constant": true,
      "inputs": [],
      "name": "numberValue",
      "outputs": [
        {
          "name": "",
          "type": "uint256"
        }
      ],
      "payable": false,
      "stateMutability": "view",
      "type": "function"
    },
    {
      "constant": true,
      "inputs": [],
      "name": "textValue",
      "outputs": [
        {
          "name": "",
          "type": "string"
        }
      ],
      "payable": false,
      "stateMutability": "view",
      "type": "function"
    },
    {
      "inputs": [],
      "payable": false,
      "stateMutability": "nonpayable",
      "type": "constructor"
    },
    {
      "payable": true,
      "stateMutability": "payable",
      "type": "fallback"
    },
    {
      "anonymous": false,
      "inputs": [
        {
          "indexed": true,
          "name": "from",
          "type": "address"
        },
        {
          "indexed": false,
          "name": "textValue",
          "type": "string"
        }
      ],
      "name": "NewTextValue",
      "type": "event"
    },
    {
      "constant": true,
      "inputs": [],
      "name": "getTextValue",
      "outputs": [
        {
          "name": "",
          "type": "string"
        }
      ],
      "payable": false,
      "stateMutability": "view",
      "type": "function"
    },
    {
      "constant": false,
      "inputs": [
        {
          "name": "_textValue",
          "type": "string"
        }
      ],
      "name": "setTextValue",
      "outputs": [
        {
          "name": "",
          "type": "bool"
        }
      ],
      "payable": false,
      "stateMutability": "nonpayable",
      "type": "function"
    }
  ],
  "bytecode": "0x60806040526040805190810160405280600b81526020017f48656c6c6f20776f726c640000000000000000000000000000000000000000008152506000908051906020019061004f929190610067565b50602b60015534801561006157600080fd5b5061010c565b828054600181600116156101000203166002900490600052602060002090601f016020900481019282601f106100a857805160ff19168380011785556100d6565b828001600101855582156100d6579182015b828111156100d55782518255916020019190600101906100ba565b5b5090506100e391906100e7565b5090565b61010991905b808211156101055760008160009055506001016100ed565b5090565b90565b61077d8061011b6000396000f300608060405260043610610078576000357c0100000000000000000000000000000000000000000000000000000000900463ffffffff16806309e9167c1461007d5780635f190a431461010d578063679459181461019d5780639c46dcdf14610243578063d2dc3b631461026e578063d57a152b146102fe575b600080fd5b34801561008957600080fd5b5061009261037f565b6040518080602001828103825283818151815260200191508051906020019080838360005b838110156100d25780820151818401526020810190506100b7565b50505050905090810190601f1680156100ff5780820380516001836020036101000a031916815260200191505b509250505060405180910390f35b34801561011957600080fd5b506101226103b8565b6040518080602001828103825283818151815260200191508051906020019080838360005b83811015610162578082015181840152602081019050610147565b50505050905090810190601f16801561018f5780820380516001836020036101000a031916815260200191505b509250505060405180910390f35b3480156101a957600080fd5b506101c86004803603810190808035906020019092919050505061045a565b6040518080602001828103825283818151815260200191508051906020019080838360005b838110156102085780820151818401526020810190506101ed565b50505050905090810190601f1680156102355780820380516001836020036101000a031916815260200191505b509250505060405180910390f35b34801561024f57600080fd5b50610258610515565b6040518082815260200191505060405180910390f35b34801561027a57600080fd5b5061028361051b565b6040518080602001828103825283818151815260200191508051906020019080838360005b838110156102c35780820151818401526020810190506102a8565b50505050905090810190601f1680156102f05780820380516001836020036101000a031916815260200191505b509250505060405180910390f35b34801561030a57600080fd5b50610365600480360381019080803590602001908201803590602001908080601f01602080910402602001604051908101604052809392919081815260200183838082843782019150505050505091929192905050506105b9565b604051808215151515815260200191505060405180910390f35b6040805190810160405280600b81526020017f537461746963205465787400000000000000000000000000000000000000000081525081565b606060008054600181600116156101000203166002900480601f0160208091040260200160405190810160405280929190818152602001828054600181600116156101000203166002900480156104505780601f1061042557610100808354040283529160200191610450565b820191906000526020600020905b81548152906001019060200180831161043357829003601f168201915b5050505050905090565b60038181548110151561046957fe5b906000526020600020016000915090508054600181600116156101000203166002900480601f01602080910402602001604051908101604052809291908181526020018280546001816001161561010002031660029004801561050d5780601f106104e25761010080835404028352916020019161050d565b820191906000526020600020905b8154815290600101906020018083116104f057829003601f168201915b505050505081565b60015481565b60008054600181600116156101000203166002900480601f0160208091040260200160405190810160405280929190818152602001828054600181600116156101000203166002900480156105b15780601f10610586576101008083540402835291602001916105b1565b820191906000526020600020905b81548152906001019060200180831161059457829003601f168201915b505050505081565b600081600090805190602001906105d19291906106ac565b503373ffffffffffffffffffffffffffffffffffffffff167f6f2230219f65eef7b13b2fed53ca49e068fdb78297c1fec8bc9360d22394f2e2600060405180806020018281038252838181546001816001161561010002031660029004815260200191508054600181600116156101000203166002900480156106955780601f1061066a57610100808354040283529160200191610695565b820191906000526020600020905b81548152906001019060200180831161067857829003601f168201915b50509250505060405180910390a260019050919050565b828054600181600116156101000203166002900490600052602060002090601f016020900481019282601f106106ed57805160ff191683800117855561071b565b8280016001018555821561071b579182015b8281111561071a5782518255916020019190600101906106ff565b5b509050610728919061072c565b5090565b61074e91905b8082111561074a576000816000905550600101610732565b5090565b905600a165627a7a723058201752471004d402e45ef42d6c39eccd9e0fa0621343b61aabbc7d2bb1ca389d060029",
  "source": "pragma solidity ^0.4.23;\n\n\ncontract HelloWorld  {\n\n    string public constant staticText = \"Static Text\";\n\n    string public textValue = \"Hello world\";\n    uint256 public numberValue = 43;\n    mapping(uint8 => string) messages;\n    string[] public textArray;\n\n    event NewTextValue(address indexed from, string textValue);\n\n    constructor() public {\n    }\n\n    function() public payable {\n        revert();\n    }\n\n    function getTextValue() public view returns (string) {\n        return textValue;\n    }\n\n    function setTextValue(string _textValue) public returns (bool) {\n        textValue = _textValue;\n        emit NewTextValue(msg.sender, textValue);\n        return true;\n    }\n}",
  "sourcePath": "/home/taablka2/Documents/training/hello-world/contracts/HelloWorld.sol",
  "compiler": {
    "name": "solc",
    "version": "0.4.23+commit.124ca40d.Emscripten.clang"
  },
  "schemaVersion": "2.0.0",
  "updatedAt": "2018-06-26T12:33:22.553Z"
}